{"abi":[{"type":"fallback","stateMutability":"payable"},{"type":"receive","stateMutability":"payable"},{"type":"function","name":"increment","inputs":[],"outputs":[],"stateMutability":"nonpayable"},{"type":"function","name":"number","inputs":[],"outputs":[{"name":"","type":"uint256","internalType":"uint256"}],"stateMutability":"view"},{"type":"function","name":"number2","inputs":[],"outputs":[{"name":"","type":"uint256","internalType":"uint256"}],"stateMutability":"view"},{"type":"function","name":"number3","inputs":[],"outputs":[{"name":"","type":"uint256","internalType":"uint256"}],"stateMutability":"view"},{"type":"function","name":"setNumber","inputs":[{"name":"newNumber","type":"uint256","internalType":"uint256"}],"outputs":[],"stateMutability":"nonpayable"}],"bytecode":{"object":"0x608060405234801561001057600080fd5b50610168806100206000396000f3fe60806040526004361061004b5760003560e01c80633fb5c1cb146100545780638381f58a1461007457806390c524431461009c578063d09de08a146100b2578063d6980dfd146100c757005b3661005257005b005b34801561006057600080fd5b5061005261006f3660046100f2565b600055565b34801561008057600080fd5b5061008a60005481565b60405190815260200160405180910390f35b3480156100a857600080fd5b5061008a60015481565b3480156100be57600080fd5b506100526100dc565b3480156100d357600080fd5b5061008a600181565b6000805490806100eb8361010b565b9190505550565b60006020828403121561010457600080fd5b5035919050565b60006001820161012b57634e487b7160e01b600052601160045260246000fd5b506001019056fea2646970667358221220886ccca28269b6139b8f73658bdb4483f02bcb0d8ced3258dcd8380f4bcd82a564736f6c63430008140033","linkReferences":{}},"methodIdentifiers":{"increment()":"d09de08a","number()":"8381f58a","number2()":"90c52443","number3()":"d6980dfd","setNumber(uint256)":"3fb5c1cb"},"id":27}